{
  "contractName": "Flashloan",
  "abi": [
    {
      "inputs": [
        {
          "name": "kyberAddress",
          "type": "address"
        },
        {
          "name": "uniswapAddress",
          "type": "address"
        },
        {
          "name": "wethAddress",
          "type": "address"
        },
        {
          "name": "daiAddress",
          "type": "address"
        },
        {
          "name": "beneficiaryAddress",
          "type": "address"
        }
      ],
      "payable": false,
      "stateMutability": "nonpayable",
      "type": "constructor"
    },
    {
      "anonymous": false,
      "inputs": [
        {
          "indexed": false,
          "name": "direction",
          "type": "uint8"
        },
        {
          "indexed": false,
          "name": "profit",
          "type": "uint256"
        },
        {
          "indexed": false,
          "name": "date",
          "type": "uint256"
        }
      ],
      "name": "NewArbitrage",
      "type": "event"
    },
    {
      "constant": false,
      "inputs": [
        {
          "name": "sender",
          "type": "address"
        },
        {
          "components": [
            {
              "name": "owner",
              "type": "address"
            },
            {
              "name": "number",
              "type": "uint256"
            }
          ],
          "name": "account",
          "type": "tuple"
        },
        {
          "name": "data",
          "type": "bytes"
        }
      ],
      "name": "callFunction",
      "outputs": [],
      "payable": false,
      "stateMutability": "nonpayable",
      "type": "function"
    },
    {
      "constant": false,
      "inputs": [
        {
          "name": "_solo",
          "type": "address"
        },
        {
          "name": "_token",
          "type": "address"
        },
        {
          "name": "_amount",
          "type": "uint256"
        },
        {
          "name": "_direction",
          "type": "uint8"
        }
      ],
      "name": "initiateFlashloan",
      "outputs": [],
      "payable": false,
      "stateMutability": "nonpayable",
      "type": "function"
    }
  ],
  "bytecode": "0x60806040523480156200001157600080fd5b5060405160a08062002993833981018060405262000033919081019062000198565b84600160006101000a81548173ffffffffffffffffffffffffffffffffffffffff021916908373ffffffffffffffffffffffffffffffffffffffff16021790555083600260006101000a81548173ffffffffffffffffffffffffffffffffffffffff021916908373ffffffffffffffffffffffffffffffffffffffff16021790555082600360006101000a81548173ffffffffffffffffffffffffffffffffffffffff021916908373ffffffffffffffffffffffffffffffffffffffff16021790555081600460006101000a81548173ffffffffffffffffffffffffffffffffffffffff021916908373ffffffffffffffffffffffffffffffffffffffff160217905550806000806101000a81548173ffffffffffffffffffffffffffffffffffffffff021916908373ffffffffffffffffffffffffffffffffffffffff16021790555050505050506200024e565b60006200019082516200023a565b905092915050565b600080600080600060a08688031215620001b157600080fd5b6000620001c18882890162000182565b9550506020620001d48882890162000182565b9450506040620001e78882890162000182565b9350506060620001fa8882890162000182565b92505060806200020d8882890162000182565b9150509295509295909350565b600073ffffffffffffffffffffffffffffffffffffffff82169050919050565b600062000247826200021a565b9050919050565b612735806200025e6000396000f3fe608060405260043610610046576000357c0100000000000000000000000000000000000000000000000000000000900480638b4187131461004b578063c013147614610074575b600080fd5b34801561005757600080fd5b50610072600480360361006d9190810190611c23565b61009d565b005b34801561008057600080fd5b5061009b60048036036100969190810190611bc0565b61108c565b005b6100a56117f8565b818060200190516100b99190810190611cf4565b90506000600460009054906101000a900473ffffffffffffffffffffffffffffffffffffffff1673ffffffffffffffffffffffffffffffffffffffff166370a08231306040518263ffffffff167c010000000000000000000000000000000000000000000000000000000002815260040161013491906121ab565b60206040518083038186803b15801561014c57600080fd5b505afa158015610160573d6000803e3d6000fd5b505050506040513d601f19601f820116820180604052506101849190810190611d1d565b905060018081111561019257fe5b826000015160018111156101a257fe5b141561079257600460009054906101000a900473ffffffffffffffffffffffffffffffffffffffff1673ffffffffffffffffffffffffffffffffffffffff1663095ea7b3600160009054906101000a900473ffffffffffffffffffffffffffffffffffffffff16836040518363ffffffff167c01000000000000000000000000000000000000000000000000000000000281526004016102439291906121c6565b602060405180830381600087803b15801561025d57600080fd5b505af1158015610271573d6000803e3d6000fd5b505050506040513d601f19601f820116820180604052506102959190810190611ccb565b506000600160009054906101000a900473ffffffffffffffffffffffffffffffffffffffff1673ffffffffffffffffffffffffffffffffffffffff1663809a9e55600460009054906101000a900473ffffffffffffffffffffffffffffffffffffffff1673eeeeeeeeeeeeeeeeeeeeeeeeeeeeeeeeeeeeeeee856040518463ffffffff167c010000000000000000000000000000000000000000000000000000000002815260040161034993929190612226565b604080518083038186803b15801561036057600080fd5b505afa158015610374573d6000803e3d6000fd5b505050506040513d601f19601f820116820180604052506103989190810190611d46565b509050600160009054906101000a900473ffffffffffffffffffffffffffffffffffffffff1673ffffffffffffffffffffffffffffffffffffffff16633bba21dc600460009054906101000a900473ffffffffffffffffffffffffffffffffffffffff1684846040518463ffffffff167c010000000000000000000000000000000000000000000000000000000002815260040161043893929190612286565b602060405180830381600087803b15801561045257600080fd5b505af1158015610466573d6000803e3d6000fd5b505050506040513d601f19601f8201168201806040525061048a9190810190611d1d565b50606060026040519080825280602002602001820160405280156104bd5781602001602082028038833980820191505090505b509050600360009054906101000a900473ffffffffffffffffffffffffffffffffffffffff168160008151811015156104f257fe5b9060200190602002019073ffffffffffffffffffffffffffffffffffffffff16908173ffffffffffffffffffffffffffffffffffffffff1681525050600460009054906101000a900473ffffffffffffffffffffffffffffffffffffffff1681600181518110151561056057fe5b9060200190602002019073ffffffffffffffffffffffffffffffffffffffff16908173ffffffffffffffffffffffffffffffffffffffff16815250506060600260009054906101000a900473ffffffffffffffffffffffffffffffffffffffff1673ffffffffffffffffffffffffffffffffffffffff1663d06ca61f3073ffffffffffffffffffffffffffffffffffffffff1631846040518363ffffffff167c010000000000000000000000000000000000000000000000000000000002815260040161062e92919061238a565b60006040518083038186803b15801561064657600080fd5b505afa15801561065a573d6000803e3d6000fd5b505050506040513d6000823e3d601f19601f820116820180604052506106839190810190611c8a565b9050600260009054906101000a900473ffffffffffffffffffffffffffffffffffffffff1673ffffffffffffffffffffffffffffffffffffffff16637ff36ab53073ffffffffffffffffffffffffffffffffffffffff16318360018151811015156106ea57fe5b906020019060200201518530426040518663ffffffff167c010000000000000000000000000000000000000000000000000000000002815260040161073294939291906123ba565b6000604051808303818588803b15801561074b57600080fd5b505af115801561075f573d6000803e3d6000fd5b50505050506040513d6000823e3d601f19601f820116820180604052506107899190810190611c8a565b50505050610d78565b600460009054906101000a900473ffffffffffffffffffffffffffffffffffffffff1673ffffffffffffffffffffffffffffffffffffffff1663095ea7b3600260009054906101000a900473ffffffffffffffffffffffffffffffffffffffff16836040518363ffffffff167c010000000000000000000000000000000000000000000000000000000002815260040161082d9291906121c6565b602060405180830381600087803b15801561084757600080fd5b505af115801561085b573d6000803e3d6000fd5b505050506040513d601f19601f8201168201806040525061087f9190810190611ccb565b50606060026040519080825280602002602001820160405280156108b25781602001602082028038833980820191505090505b509050600460009054906101000a900473ffffffffffffffffffffffffffffffffffffffff168160008151811015156108e757fe5b9060200190602002019073ffffffffffffffffffffffffffffffffffffffff16908173ffffffffffffffffffffffffffffffffffffffff1681525050600360009054906101000a900473ffffffffffffffffffffffffffffffffffffffff1681600181518110151561095557fe5b9060200190602002019073ffffffffffffffffffffffffffffffffffffffff16908173ffffffffffffffffffffffffffffffffffffffff16815250506060600260009054906101000a900473ffffffffffffffffffffffffffffffffffffffff1673ffffffffffffffffffffffffffffffffffffffff1663d06ca61f84846040518363ffffffff167c0100000000000000000000000000000000000000000000000000000000028152600401610a0c92919061238a565b60006040518083038186803b158015610a2457600080fd5b505afa158015610a38573d6000803e3d6000fd5b505050506040513d6000823e3d601f19601f82011682018060405250610a619190810190611c8a565b9050600260009054906101000a900473ffffffffffffffffffffffffffffffffffffffff1673ffffffffffffffffffffffffffffffffffffffff166318cbafe584836001815181101515610ab157fe5b906020019060200201518530426040518663ffffffff167c0100000000000000000000000000000000000000000000000000000000028152600401610afa959493929190612406565b600060405180830381600087803b158015610b1457600080fd5b505af1158015610b28573d6000803e3d6000fd5b505050506040513d6000823e3d601f19601f82011682018060405250610b519190810190611c8a565b506000600160009054906101000a900473ffffffffffffffffffffffffffffffffffffffff1673ffffffffffffffffffffffffffffffffffffffff1663809a9e5573eeeeeeeeeeeeeeeeeeeeeeeeeeeeeeeeeeeeeeee600460009054906101000a900473ffffffffffffffffffffffffffffffffffffffff163073ffffffffffffffffffffffffffffffffffffffff16316040518463ffffffff167c0100000000000000000000000000000000000000000000000000000000028152600401610c1c93929190612226565b604080518083038186803b158015610c3357600080fd5b505afa158015610c47573d6000803e3d6000fd5b505050506040513d601f19601f82011682018060405250610c6b9190810190611d46565b509050600160009054906101000a900473ffffffffffffffffffffffffffffffffffffffff1673ffffffffffffffffffffffffffffffffffffffff16637a2a04563073ffffffffffffffffffffffffffffffffffffffff1631600460009054906101000a900473ffffffffffffffffffffffffffffffffffffffff16846040518463ffffffff167c0100000000000000000000000000000000000000000000000000000000028152600401610d2192919061225d565b6020604051808303818588803b158015610d3a57600080fd5b505af1158015610d4e573d6000803e3d6000fd5b50505050506040513d601f19601f82011682018060405250610d739190810190611d1d565b505050505b8160200151600460009054906101000a900473ffffffffffffffffffffffffffffffffffffffff1673ffffffffffffffffffffffffffffffffffffffff166370a08231306040518263ffffffff167c0100000000000000000000000000000000000000000000000000000000028152600401610df491906121ab565b60206040518083038186803b158015610e0c57600080fd5b505afa158015610e20573d6000803e3d6000fd5b505050506040513d601f19601f82011682018060405250610e449190810190611d1d565b10151515610e87576040517f08c379a0000000000000000000000000000000000000000000000000000000008152600401610e7e90612314565b60405180910390fd5b60008260200151600460009054906101000a900473ffffffffffffffffffffffffffffffffffffffff1673ffffffffffffffffffffffffffffffffffffffff166370a08231306040518263ffffffff167c0100000000000000000000000000000000000000000000000000000000028152600401610f0591906121ab565b60206040518083038186803b158015610f1d57600080fd5b505afa158015610f31573d6000803e3d6000fd5b505050506040513d601f19601f82011682018060405250610f559190810190611d1d565b039050600460009054906101000a900473ffffffffffffffffffffffffffffffffffffffff1673ffffffffffffffffffffffffffffffffffffffff1663a9059cbb6000809054906101000a900473ffffffffffffffffffffffffffffffffffffffff16836040518363ffffffff167c0100000000000000000000000000000000000000000000000000000000028152600401610ff29291906121c6565b602060405180830381600087803b15801561100c57600080fd5b505af1158015611020573d6000803e3d6000fd5b505050506040513d601f19601f820116820180604052506110449190810190611ccb565b507fa89b78c8d1240154beaf4b865d2d7cb794ac0f358c618aef3de102cf4a4ee42d8360000151824260405161107c939291906122bd565b60405180910390a1505050505050565b6000849050600061109d868661133d565b905060006110aa85611527565b90508573ffffffffffffffffffffffffffffffffffffffff1663095ea7b388836040518363ffffffff167c01000000000000000000000000000000000000000000000000000000000281526004016111039291906121c6565b602060405180830381600087803b15801561111d57600080fd5b505af1158015611131573d6000803e3d6000fd5b505050506040513d601f19601f820116820180604052506111559190810190611ccb565b506060600360405190808252806020026020018201604052801561119357816020015b61118061181d565b8152602001906001900390816111785790505b5090506111a08387611544565b8160008151811015156111af57fe5b9060200190602002018190525061120360408051908101604052808760018111156111d657fe5b8152602001848152506040516020016111ef9190612354565b604051602081830303815290604052611600565b81600181518110151561121257fe5b9060200190602002018190525061122983836116ac565b81600281518110151561123857fe5b906020019060200201819052506060600160405190808252806020026020018201604052801561128257816020015b61126f61188a565b8152602001906001900390816112675790505b50905061128d611768565b81600081518110151561129c57fe5b906020019060200201819052508473ffffffffffffffffffffffffffffffffffffffff1663a67a6a4582846040518363ffffffff167c01000000000000000000000000000000000000000000000000000000000281526004016113009291906121ef565b600060405180830381600087803b15801561131a57600080fd5b505af115801561132e573d6000803e3d6000fd5b50505050505050505050505050565b60008083905060008173ffffffffffffffffffffffffffffffffffffffff1663295c39a56040518163ffffffff167c010000000000000000000000000000000000000000000000000000000002815260040160206040518083038186803b1580156113a757600080fd5b505afa1580156113bb573d6000803e3d6000fd5b505050506040513d601f19601f820116820180604052506113df9190810190611d1d565b9050600080600090505b828110156114e5578373ffffffffffffffffffffffffffffffffffffffff1663062bd3e9826040518263ffffffff167c0100000000000000000000000000000000000000000000000000000000028152600401611446919061236f565b60206040518083038186803b15801561145e57600080fd5b505afa158015611472573d6000803e3d6000fd5b505050506040513d601f19601f820116820180604052506114969190810190611b97565b91508573ffffffffffffffffffffffffffffffffffffffff168273ffffffffffffffffffffffffffffffffffffffff1614156114d85780945050505050611521565b80806001019150506113e9565b506040517f08c379a000000000000000000000000000000000000000000000000000000000815260040161151890612334565b60405180910390fd5b92915050565b600061153d6002836117a190919063ffffffff16565b9050919050565b61154c6118ba565b610100604051908101604052806001600881111561156657fe5b8152602001600081526020016080604051908101604052806000151581526020016000600181111561159457fe5b8152602001600060018111156115a657fe5b8152602001858152508152602001848152602001600081526020013073ffffffffffffffffffffffffffffffffffffffff168152602001600081526020016020604051908101604052806000815250815250905092915050565b6116086118ba565b6101006040519081016040528060088081111561162157fe5b8152602001600081526020016080604051908101604052806000151581526020016000600181111561164f57fe5b81526020016000600181111561166157fe5b81526020016000815250815260200160008152602001600081526020013073ffffffffffffffffffffffffffffffffffffffff16815260200160008152602001838152509050919050565b6116b46118ba565b61010060405190810160405280600060088111156116ce57fe5b815260200160008152602001608060405190810160405280600115158152602001600060018111156116fc57fe5b81526020016000600181111561170e57fe5b8152602001858152508152602001848152602001600081526020013073ffffffffffffffffffffffffffffffffffffffff168152602001600081526020016020604051908101604052806000815250815250905092915050565b611770611927565b60408051908101604052803073ffffffffffffffffffffffffffffffffffffffff1681526020016001815250905090565b60008082840190508381101515156117ee576040517f08c379a00000000000000000000000000000000000000000000000000000000081526004016117e5906122f4565b60405180910390fd5b8091505092915050565b60408051908101604052806000600181111561181057fe5b8152602001600081525090565b610160604051908101604052806000600881111561183757fe5b81526020016000815260200161184b611957565b81526020016000815260200160008152602001600073ffffffffffffffffffffffffffffffffffffffff16815260200160008152602001606081525090565b6040805190810160405280600073ffffffffffffffffffffffffffffffffffffffff168152602001600081525090565b61016060405190810160405280600060088111156118d457fe5b8152602001600081526020016118e8611957565b81526020016000815260200160008152602001600073ffffffffffffffffffffffffffffffffffffffff16815260200160008152602001606081525090565b6040805190810160405280600073ffffffffffffffffffffffffffffffffffffffff168152602001600081525090565b6080604051908101604052806000151581526020016000600181111561197957fe5b81526020016000600181111561198b57fe5b8152602001600081525090565b60006119a482356125fb565b905092915050565b60006119b882516125fb565b905092915050565b600082601f83011215156119d357600080fd5b81516119e66119e18261248d565b612460565b91508181835260208401935060208101905083856020840282011115611a0b57600080fd5b60005b83811015611a3b5781611a218882611b83565b845260208401935060208301925050600181019050611a0e565b5050505092915050565b6000611a51825161260d565b905092915050565b600082601f8301121515611a6c57600080fd5b8135611a7f611a7a826124b5565b612460565b91508082526020830160208301858383011115611a9b57600080fd5b611aa68382846126a8565b50505092915050565b6000611abb8235612619565b905092915050565b6000611acf8251612619565b905092915050565b600060408284031215611ae957600080fd5b611af36040612460565b90506000611b0384828501611ac3565b6000830152506020611b1784828501611b83565b60208301525092915050565b600060408284031215611b3557600080fd5b611b3f6040612460565b90506000611b4f84828501611998565b6000830152506020611b6384828501611b6f565b60208301525092915050565b6000611b7b8235612632565b905092915050565b6000611b8f8251612632565b905092915050565b600060208284031215611ba957600080fd5b6000611bb7848285016119ac565b91505092915050565b60008060008060808587031215611bd657600080fd5b6000611be487828801611998565b9450506020611bf587828801611998565b9350506040611c0687828801611b6f565b9250506060611c1787828801611aaf565b91505092959194509250565b600080600060808486031215611c3857600080fd5b6000611c4686828701611998565b9350506020611c5786828701611b23565b925050606084013567ffffffffffffffff811115611c7457600080fd5b611c8086828701611a59565b9150509250925092565b600060208284031215611c9c57600080fd5b600082015167ffffffffffffffff811115611cb657600080fd5b611cc2848285016119c0565b91505092915050565b600060208284031215611cdd57600080fd5b6000611ceb84828501611a45565b91505092915050565b600060408284031215611d0657600080fd5b6000611d1484828501611ad7565b91505092915050565b600060208284031215611d2f57600080fd5b6000611d3d84828501611b83565b91505092915050565b60008060408385031215611d5957600080fd5b6000611d6785828601611b83565b9250506020611d7885828601611b83565b9150509250929050565b611d8b8161255b565b82525050565b6000611d9c82612508565b808452602084019350611dae836124e1565b60005b82811015611de057611dc4868351611d82565b611dcd82612534565b9150602086019550600181019050611db1565b50849250505092915050565b6000611df782612513565b80845260208401935083602082028501611e10856124ee565b60005b84811015611e49578383038852611e2b838351612036565b9250611e3682612541565b9150602088019750600181019050611e13565b508196508694505050505092915050565b6000611e658261251e565b808452602084019350611e77836124fb565b60005b82811015611ea957611e8d86835161216d565b611e968261254e565b9150604086019550600181019050611e7a565b50849250505092915050565b611ebe8161256d565b82525050565b6000611ecf82612529565b808452611ee38160208601602086016126b7565b611eec816126ea565b602085010191505092915050565b611f038161263c565b82525050565b611f1281612660565b82525050565b611f2181612672565b82525050565b611f3081612684565b82525050565b611f3f81612696565b82525050565b6000601b82527f536166654d6174683a206164646974696f6e206f766572666c6f7700000000006020830152604082019050919050565b6000602482527f4e6f7420656e6f7567682066756e647320746f2072657061792064796478206c60208301527f6f616e21000000000000000000000000000000000000000000000000000000006040830152606082019050919050565b6000602482527f4e6f206d61726b6574496420666f756e6420666f722070726f7669646564207460208301527f6f6b656e000000000000000000000000000000000000000000000000000000006040830152606082019050919050565b60006101608301600083015161204f6000860182611f09565b506020830151612062602086018261219c565b5060408301516120756040860182612118565b50606083015161208860c086018261219c565b50608083015161209b60e086018261219c565b5060a08301516120af610100860182611d82565b5060c08301516120c361012086018261219c565b5060e08301518482036101408601526120dc8282611ec4565b9150508091505092915050565b6040820160008201516120ff6000850182611f36565b506020820151612112602085018261219c565b50505050565b60808201600082015161212e6000850182611eb5565b5060208201516121416020850182611f18565b5060408201516121546040850182611f27565b506060820151612167606085018261219c565b50505050565b6040820160008201516121836000850182611d82565b506020820151612196602085018261219c565b50505050565b6121a5816125f1565b82525050565b60006020820190506121c06000830184611d82565b92915050565b60006040820190506121db6000830185611d82565b6121e8602083018461219c565b9392505050565b600060408201905081810360008301526122098185611e5a565b9050818103602083015261221d8184611dec565b90509392505050565b600060608201905061223b6000830186611efa565b6122486020830185611efa565b612255604083018461219c565b949350505050565b60006040820190506122726000830185611efa565b61227f602083018461219c565b9392505050565b600060608201905061229b6000830186611efa565b6122a8602083018561219c565b6122b5604083018461219c565b949350505050565b60006060820190506122d26000830186611f36565b6122df602083018561219c565b6122ec604083018461219c565b949350505050565b6000602082019050818103600083015261230d81611f45565b9050919050565b6000602082019050818103600083015261232d81611f7c565b9050919050565b6000602082019050818103600083015261234d81611fd9565b9050919050565b600060408201905061236960008301846120e9565b92915050565b6000602082019050612384600083018461219c565b92915050565b600060408201905061239f600083018561219c565b81810360208301526123b18184611d91565b90509392505050565b60006080820190506123cf600083018761219c565b81810360208301526123e18186611d91565b90506123f06040830185611d82565b6123fd606083018461219c565b95945050505050565b600060a08201905061241b600083018861219c565b612428602083018761219c565b818103604083015261243a8186611d91565b90506124496060830185611d82565b612456608083018461219c565b9695505050505050565b6000604051905081810181811067ffffffffffffffff8211171561248357600080fd5b8060405250919050565b600067ffffffffffffffff8211156124a457600080fd5b602082029050602081019050919050565b600067ffffffffffffffff8211156124cc57600080fd5b601f19601f8301169050602081019050919050565b6000602082019050919050565b6000602082019050919050565b6000602082019050919050565b600081519050919050565b600081519050919050565b600081519050919050565b600081519050919050565b6000602082019050919050565b6000602082019050919050565b6000602082019050919050565b6000612566826125d1565b9050919050565b60008115159050919050565b600060098210151561258757fe5b819050919050565b600060028210151561259d57fe5b819050919050565b60006002821015156125b357fe5b819050919050565b60006002821015156125c957fe5b819050919050565b600073ffffffffffffffffffffffffffffffffffffffff82169050919050565b6000819050919050565b6000612606826125d1565b9050919050565b60008115159050919050565b600060028210151561262a57600080fd5b819050919050565b6000819050919050565b60006126478261264e565b9050919050565b6000612659826125d1565b9050919050565b600061266b82612579565b9050919050565b600061267d8261258f565b9050919050565b600061268f826125a5565b9050919050565b60006126a1826125bb565b9050919050565b82818337600083830152505050565b60005b838110156126d55780820151818401526020810190506126ba565b838111156126e4576000848401525b50505050565b6000601f19601f830116905091905056fea265627a7a72305820678771ac6e352d810e84a69916d26dbf2a9c60c995fa5b51559f838a99197af06c6578706572696d656e74616cf50037",
  "source": "// SPDX-License-Identifier: GPL-3.0\n\npragma solidity ^0.5.0;\npragma experimental ABIEncoderV2;\n\nimport \"@studydefi/money-legos/dydx/contracts/DydxFlashloanBase.sol\";\nimport \"@studydefi/money-legos/dydx/contracts/ICallee.sol\";\nimport { KyberNetworkProxy as IKyberNetworkProxy } from \"@studydefi/money-legos/kyber/contracts/KyberNetworkProxy.sol\";\nimport \"@openzeppelin/contracts/token/ERC20/IERC20.sol\";\n\nimport \"./IUniswapV2Router02.sol\";\nimport \"./IWeth.sol\";\n\ncontract Flashloan is ICallee, DydxFlashloanBase {\n    enum Direction {UniswapToKyber, KyberToUniswap}\n    struct ArbInfo {\n        Direction direction;\n        uint256 repayAmount;\n    }\n    event NewArbitrage(Direction direction, uint profit, uint date);\n    address beneficiary;\n\n    IKyberNetworkProxy kyber;\n    IUniswapV2Router02 uniswap;\n    IWeth weth;\n    IERC20 dai;\n    address constant KYBER_ETH_ADDRESS =\n        0xEeeeeEeeeEeEeeEeEeEeeEEEeeeeEeeeeeeeEEeE;\n\n    constructor(\n        address kyberAddress,\n        address uniswapAddress,\n        address wethAddress,\n        address daiAddress,\n        address beneficiaryAddress\n    ) public {\n        kyber = IKyberNetworkProxy(kyberAddress);\n        uniswap = IUniswapV2Router02(uniswapAddress);\n        weth = IWeth(wethAddress);\n        dai = IERC20(daiAddress);\n        beneficiary = beneficiaryAddress;\n    }\n\n    function callFunction(\n        address sender,\n        Account.Info memory account,\n        bytes memory data\n    ) public {\n        ArbInfo memory arbInfo = abi.decode(data, (ArbInfo));\n        uint256 balOfDai = dai.balanceOf(address(this));\n\n        if (arbInfo.direction == Direction.KyberToUniswap) {\n            // Buy ETH on Kyber //\n            dai.approve(address(kyber), balOfDai);\n            (uint expectedRate, ) = kyber.getExpectedRate(dai, IERC20(KYBER_ETH_ADDRESS), balOfDai);\n            kyber.swapTokenToEther(dai, balOfDai, expectedRate);\n\n            // Sell ETH on Uniswap //\n            address[] memory path = new address[](2);\n            path[0] = address(weth);\n            path[1] = address(dai);\n            uint256[] memory minOuts =\n                uniswap.getAmountsOut(address(this).balance, path);\n            uniswap.swapExactETHForTokens.value(address(this).balance)(\n                minOuts[1],\n                path,\n                address(this),\n                block.timestamp\n            );\n        } else {\n            // Buy on Uniswap\n            dai.approve(address(uniswap), balOfDai);\n            address[] memory path = new address[](2);\n            path[0] = address(dai);\n            path[1] = address(weth);\n            uint[] memory minOuts = uniswap.getAmountsOut(balOfDai, path);\n            uniswap.swapExactTokensForETH(balOfDai, minOuts[1], path, address(this), block.timestamp);\n\n            // Sell on Kyber\n            (uint expectedRate, ) = kyber.getExpectedRate(IERC20(KYBER_ETH_ADDRESS), dai, address(this).balance);\n            kyber.swapEtherToToken.value(address(this).balance)(dai, expectedRate);\n        }\n\n        require(\n            dai.balanceOf(address(this)) >= arbInfo.repayAmount,\n            \"Not enough funds to repay dydx loan!\"\n        );\n\n        uint profit = dai.balanceOf(address(this)) - arbInfo.repayAmount;\n        dai.transfer(beneficiary, profit);\n        emit NewArbitrage(arbInfo.direction, profit, block.timestamp);\n    }\n\n    function initiateFlashloan(\n        address _solo,\n        address _token,\n        uint256 _amount,\n        Direction _direction\n    ) external {\n        ISoloMargin solo = ISoloMargin(_solo);\n\n        // Get marketId from token address\n        uint256 marketId = _getMarketIdFromTokenAddress(_solo, _token);\n\n        // Calculate repay amount (_amount + (2 wei))\n        // Approve transfer from\n        uint256 repayAmount = _getRepaymentAmountInternal(_amount);\n        IERC20(_token).approve(_solo, repayAmount);\n\n        // 1. Withdraw $\n        // 2. Call callFunction(...)\n        // 3. Deposit back $\n        Actions.ActionArgs[] memory operations = new Actions.ActionArgs[](3);\n\n        operations[0] = _getWithdrawAction(marketId, _amount);\n        operations[1] = _getCallAction(\n            // Encode ArbInfo for callFunction\n            abi.encode(\n                ArbInfo({direction: _direction, repayAmount: repayAmount})\n            )\n        );\n        operations[2] = _getDepositAction(marketId, repayAmount);\n\n        Account.Info[] memory accountInfos = new Account.Info[](1);\n        accountInfos[0] = _getAccountInfo();\n\n        solo.operate(accountInfos, operations);\n    }\n\n    // fallback() external payable {}\n}\n",
  "sourcePath": "/Users/federico/Desktop/bbvaHack/eattheblocks/profitableFlashloans/contracts/Flashloan.sol",
  "compiler": {
    "name": "solc",
    "version": "0.5.1+commit.c8a2cb62.Linux.g++"
  },
  "schemaVersion": "3.3.1",
  "updatedAt": "2021-01-27T04:12:04.982Z",
  "devdoc": {
    "methods": {}
  },
  "userdoc": {
    "methods": {}
  }
}